{
  "contractName": "Database",
  "abi": [
    {
      "constant": true,
      "inputs": [],
      "name": "version",
      "outputs": [
        {
          "name": "",
          "type": "uint256"
        }
      ],
      "payable": false,
      "stateMutability": "view",
      "type": "function"
    },
    {
      "constant": true,
      "inputs": [
        {
          "name": "",
          "type": "address"
        }
      ],
      "name": "addressToHandler",
      "outputs": [
        {
          "name": "_name",
          "type": "string"
        },
        {
          "name": "_additionalInformation",
          "type": "string"
        }
      ],
      "payable": false,
      "stateMutability": "view",
      "type": "function"
    },
    {
      "constant": true,
      "inputs": [],
      "name": "previousPublishedVersion",
      "outputs": [
        {
          "name": "",
          "type": "address"
        }
      ],
      "payable": false,
      "stateMutability": "view",
      "type": "function"
    },
    {
      "constant": true,
      "inputs": [
        {
          "name": "",
          "type": "uint256"
        }
      ],
      "name": "products",
      "outputs": [
        {
          "name": "",
          "type": "address"
        }
      ],
      "payable": false,
      "stateMutability": "view",
      "type": "function"
    },
    {
      "constant": false,
      "inputs": [
        {
          "name": "productAddress",
          "type": "address"
        }
      ],
      "name": "storeProductReference",
      "outputs": [],
      "payable": false,
      "stateMutability": "nonpayable",
      "type": "function"
    },
    {
      "constant": true,
      "inputs": [],
      "name": "owner",
      "outputs": [
        {
          "name": "",
          "type": "address"
        }
      ],
      "payable": false,
      "stateMutability": "view",
      "type": "function"
    },
    {
      "constant": false,
      "inputs": [
        {
          "name": "_address",
          "type": "address"
        },
        {
          "name": "_name",
          "type": "string"
        },
        {
          "name": "_additionalInformation",
          "type": "string"
        }
      ],
      "name": "addHandler",
      "outputs": [],
      "payable": false,
      "stateMutability": "nonpayable",
      "type": "function"
    },
    {
      "constant": false,
      "inputs": [],
      "name": "owned",
      "outputs": [],
      "payable": false,
      "stateMutability": "nonpayable",
      "type": "function"
    },
    {
      "constant": false,
      "inputs": [
        {
          "name": "newOwner",
          "type": "address"
        }
      ],
      "name": "transferOwnership",
      "outputs": [],
      "payable": false,
      "stateMutability": "nonpayable",
      "type": "function"
    },
    {
      "inputs": [
        {
          "name": "_previousPublishedVersion",
          "type": "address"
        },
        {
          "name": "_version",
          "type": "uint256"
        }
      ],
      "payable": false,
      "stateMutability": "nonpayable",
      "type": "constructor"
    },
    {
      "payable": false,
      "stateMutability": "nonpayable",
      "type": "fallback"
    }
  ],
  "bytecode": "0x6060604052341561000f57600080fd5b604051604080610931833981016040528080519060200190919080519060200190919050508060018190555081600260006101000a81548173ffffffffffffffffffffffffffffffffffffffff021916908373ffffffffffffffffffffffffffffffffffffffff16021790555050506108a48061008d6000396000f300606060405260043610610099576000357c0100000000000000000000000000000000000000000000000000000000900463ffffffff16806354fd4d50146100a9578063590b2d9b146100d25780636104464f1461022a5780637acc0b201461027f578063805593db146102e25780638da5cb5b1461031b578063caa6374214610370578063df32754b1461042f578063f2fde38b14610444575b34156100a457600080fd5b600080fd5b34156100b457600080fd5b6100bc61047d565b6040518082815260200191505060405180910390f35b34156100dd57600080fd5b610109600480803573ffffffffffffffffffffffffffffffffffffffff16906020019091905050610483565b6040518080602001806020018381038352858181546001816001161561010002031660029004815260200191508054600181600116156101000203166002900480156101965780601f1061016b57610100808354040283529160200191610196565b820191906000526020600020905b81548152906001019060200180831161017957829003601f168201915b50508381038252848181546001816001161561010002031660029004815260200191508054600181600116156101000203166002900480156102195780601f106101ee57610100808354040283529160200191610219565b820191906000526020600020905b8154815290600101906020018083116101fc57829003601f168201915b505094505050505060405180910390f35b341561023557600080fd5b61023d6104a5565b604051808273ffffffffffffffffffffffffffffffffffffffff1673ffffffffffffffffffffffffffffffffffffffff16815260200191505060405180910390f35b341561028a57600080fd5b6102a060048080359060200190919050506104cb565b604051808273ffffffffffffffffffffffffffffffffffffffff1673ffffffffffffffffffffffffffffffffffffffff16815260200191505060405180910390f35b34156102ed57600080fd5b610319600480803573ffffffffffffffffffffffffffffffffffffffff1690602001909190505061050a565b005b341561032657600080fd5b61032e610570565b604051808273ffffffffffffffffffffffffffffffffffffffff1673ffffffffffffffffffffffffffffffffffffffff16815260200191505060405180910390f35b341561037b57600080fd5b61042d600480803573ffffffffffffffffffffffffffffffffffffffff1690602001909190803590602001908201803590602001908080601f0160208091040260200160405190810160405280939291908181526020018383808284378201915050505050509190803590602001908201803590602001908080601f01602080910402602001604051908101604052809392919081815260200183838082843782019150505050505091905050610595565b005b341561043a57600080fd5b61044261068d565b005b341561044f57600080fd5b61047b600480803573ffffffffffffffffffffffffffffffffffffffff169060200190919050506106cf565b005b60015481565b6004602052806000526040600020600091509050806000019080600101905082565b600260009054906101000a900473ffffffffffffffffffffffffffffffffffffffff1681565b6003818154811015156104da57fe5b90600052602060002090016000915054906101000a900473ffffffffffffffffffffffffffffffffffffffff1681565b6003805480600101828161051e919061076d565b9160005260206000209001600083909190916101000a81548173ffffffffffffffffffffffffffffffffffffffff021916908373ffffffffffffffffffffffffffffffffffffffff1602179055505050565b6000809054906101000a900473ffffffffffffffffffffffffffffffffffffffff1681565b61059d610799565b6000809054906101000a900473ffffffffffffffffffffffffffffffffffffffff1673ffffffffffffffffffffffffffffffffffffffff163373ffffffffffffffffffffffffffffffffffffffff161415156105f857600080fd5b82816000018190525081816020018190525080600460008673ffffffffffffffffffffffffffffffffffffffff1673ffffffffffffffffffffffffffffffffffffffff16815260200190815260200160002060008201518160000190805190602001906106669291906107bf565b5060208201518160010190805190602001906106839291906107bf565b5090505050505050565b336000806101000a81548173ffffffffffffffffffffffffffffffffffffffff021916908373ffffffffffffffffffffffffffffffffffffffff160217905550565b6000809054906101000a900473ffffffffffffffffffffffffffffffffffffffff1673ffffffffffffffffffffffffffffffffffffffff163373ffffffffffffffffffffffffffffffffffffffff1614151561072a57600080fd5b806000806101000a81548173ffffffffffffffffffffffffffffffffffffffff021916908373ffffffffffffffffffffffffffffffffffffffff16021790555050565b81548183558181151161079457818360005260206000209182019101610793919061083f565b5b505050565b60408051908101604052806107ac610864565b81526020016107b9610864565b81525090565b828054600181600116156101000203166002900490600052602060002090601f016020900481019282601f1061080057805160ff191683800117855561082e565b8280016001018555821561082e579182015b8281111561082d578251825591602001919060010190610812565b5b50905061083b919061083f565b5090565b61086191905b8082111561085d576000816000905550600101610845565b5090565b90565b6020604051908101604052806000815250905600a165627a7a7230582031aa0de3700871139df9166e5cf85f79a0a7bd8003d83d276ac328ec06c41cf80029",
  "source": "pragma solidity 0.4.18;\n\nimport \"./owned.sol\";\n/*\n  Copyright 2017, David Riudor\n\n  This program is free software: you can redistribute it and/or modify\n  it under the terms of the GNU General Public License as published by\n  the Free Software Foundation, either version 3 of the License, or\n  (at your option) any later version.\n\n  This program is distributed in the hope that it will be useful,\n  but WITHOUT ANY WARRANTY; without even the implied warranty of\n  MERCHANTABILITY or FITNESS FOR A PARTICULAR PURPOSE.  See the\n  GNU General Public License for more details.\n\n  You should have received a copy of the GNU General Public License\n  along with this program.  If not, see <http://www.gnu.org/licenses/>.\n*/\n\n/* @title Database Contract\n  @author David Riudor\n  @dev This contract represents the database to store all handlers and products of the\n  */\n\ncontract Database is Owned {\n\n    uint public version;\n    address public previousPublishedVersion;\n\n    /* @notice Constructor to create a Database */\n    function Database(address _previousPublishedVersion, uint _version) public {\n        version = _version;\n        previousPublishedVersion = _previousPublishedVersion;\n    }\n\n    /* @dev addresses of the Products referenced in this database */\n    address[] public products;\n\n    /* @dev struct which represents a Handler for the products stored in the database. */\n    struct Handler {\n        // @dev indicates the name of a Handler.\n        string _name;\n        // @dev Additional information about the Handler, generally as a JSON object\n        string _additionalInformation;\n    }\n\n    /* @dev Relates an address with a Handler record. */\n    mapping(address => Handler) public addressToHandler;\n\n    function () public {\n      // If anyone wants to send Ether to this contract, the transaction gets rejected\n        revert();\n    }\n\n    /* @notice Function to add a Handler reference\n       @param _address address of the handler\n       @param _name The name of the Handler\n       @param _additionalInformation Additional information about the Product,\n              generally as a JSON object. */\n    function addHandler(address _address, string _name, string _additionalInformation) public onlyOwner {\n        Handler memory handler;\n        handler._name = _name;\n        handler._additionalInformation = _additionalInformation;\n\n        addressToHandler[_address] = handler;\n    }\n\n    /* @notice Function to add a product reference\n       @param productAddress address of the product */\n    function storeProductReference(address productAddress) public {\n        products.push(productAddress);\n    }\n\n}\n\n/*\ncontract UportRegistry {\n    uint public version;\n    address public previousPublishedVersion;\n    mapping(bytes32 => mapping(address => mapping(address => bytes32))) public registry;\n\n    function UportRegistry(address _previousPublishedVersion) public {\n        version = 4;\n        previousPublishedVersion = _previousPublishedVersion;\n    }\n\n    event Set(\n        bytes32 indexed registrationIdentifier,\n        address indexed issuer,\n        address indexed subject,\n        uint updatedAt\n    );\n\n    //create or update\n    function set(bytes32 registrationIdentifier, address subject, bytes32 value) public {\n        Set(registrationIdentifier, msg.sender, subject, now);\n        registry[registrationIdentifier][msg.sender][subject] = value;\n    }\n\n    function get(bytes32 registrationIdentifier, address issuer, address subject) public constant returns(bytes32) {\n        return registry[registrationIdentifier][issuer][subject];\n    }\n}\n*/\n",
  "sourcePath": "/Users/mokhtarbacha/dev/PiegadesContracts/contracts/Database.sol",
  "compiler": {
    "name": "solc",
    "version": "0.4.18+commit.9cf6e910.Emscripten.clang"
  },
  "schemaVersion": "1.0.1",
  "updatedAt": "2017-12-16T20:44:53.317Z"
}