{
  "contractName": "ProductFactory",
  "abi": [
    {
      "constant": false,
      "inputs": [
        {
          "name": "_name",
          "type": "bytes32"
        },
        {
          "name": "_additionalInformation",
          "type": "bytes32"
        },
        {
          "name": "_geoUri",
          "type": "int256"
        },
        {
          "name": "dataBaseContract",
          "type": "address"
        }
      ],
      "name": "createProduct",
      "outputs": [
        {
          "name": "",
          "type": "address"
        }
      ],
      "payable": false,
      "stateMutability": "nonpayable",
      "type": "function"
    },
    {
      "constant": true,
      "inputs": [],
      "name": "getProductCount",
      "outputs": [
        {
          "name": "productCount",
          "type": "uint256"
        }
      ],
      "payable": false,
      "stateMutability": "view",
      "type": "function"
    },
    {
      "constant": true,
      "inputs": [
        {
          "name": "",
          "type": "uint256"
        }
      ],
      "name": "products",
      "outputs": [
        {
          "name": "product",
          "type": "address"
        },
        {
          "name": "owner",
          "type": "address"
        }
      ],
      "payable": false,
      "stateMutability": "view",
      "type": "function"
    },
    {
      "payable": false,
      "stateMutability": "nonpayable",
      "type": "fallback"
    },
    {
      "anonymous": false,
      "inputs": [
        {
          "indexed": false,
          "name": "productAddress",
          "type": "address"
        },
        {
          "indexed": false,
          "name": "ownerAddress",
          "type": "address"
        },
        {
          "indexed": false,
          "name": "createdAt",
          "type": "uint256"
        }
      ],
      "name": "NewProductCreated",
      "type": "event"
    }
  ],
  "bytecode": "0x6060604052341561000f57600080fd5b610fe48061001e6000396000f300606060405260043610610057576000357c0100000000000000000000000000000000000000000000000000000000900463ffffffff16806341b1810c146100675780634a348da9146101035780637acc0b201461012c575b341561006257600080fd5b600080fd5b341561007257600080fd5b6100c16004808035600019169060200190919080356000191690602001909190803590602001909190803573ffffffffffffffffffffffffffffffffffffffff169060200190919050506101c2565b604051808273ffffffffffffffffffffffffffffffffffffffff1673ffffffffffffffffffffffffffffffffffffffff16815260200191505060405180910390f35b341561010e57600080fd5b610116610457565b6040518082815260200191505060405180910390f35b341561013757600080fd5b61014d6004808035906020019091905050610463565b604051808373ffffffffffffffffffffffffffffffffffffffff1673ffffffffffffffffffffffffffffffffffffffff1681526020018273ffffffffffffffffffffffffffffffffffffffff1673ffffffffffffffffffffffffffffffffffffffff1681526020019250505060405180910390f35b6000806101cd6104d6565b86868686306101da61051c565b80866000191660001916815260200185600019166000191681526020018481526020018373ffffffffffffffffffffffffffffffffffffffff1673ffffffffffffffffffffffffffffffffffffffff1681526020018273ffffffffffffffffffffffffffffffffffffffff1673ffffffffffffffffffffffffffffffffffffffff16815260200195505050505050604051809103906000f080151561027e57600080fd5b915081816000019073ffffffffffffffffffffffffffffffffffffffff16908173ffffffffffffffffffffffffffffffffffffffff168152505033816020019073ffffffffffffffffffffffffffffffffffffffff16908173ffffffffffffffffffffffffffffffffffffffff168152505060008054806001018281610304919061052c565b9160005260206000209060020201600083909190915060008201518160000160006101000a81548173ffffffffffffffffffffffffffffffffffffffff021916908373ffffffffffffffffffffffffffffffffffffffff16021790555060208201518160010160006101000a81548173ffffffffffffffffffffffffffffffffffffffff021916908373ffffffffffffffffffffffffffffffffffffffff1602179055505050507f401efa97456cd1cb244c3cfa70e6b407a1a3e9d10acd604b53277ce2d740a28a823342604051808473ffffffffffffffffffffffffffffffffffffffff1673ffffffffffffffffffffffffffffffffffffffff1681526020018373ffffffffffffffffffffffffffffffffffffffff1673ffffffffffffffffffffffffffffffffffffffff168152602001828152602001935050505060405180910390a18192505050949350505050565b60008080549050905090565b60008181548110151561047257fe5b90600052602060002090600202016000915090508060000160009054906101000a900473ffffffffffffffffffffffffffffffffffffffff16908060010160009054906101000a900473ffffffffffffffffffffffffffffffffffffffff16905082565b6040805190810160405280600073ffffffffffffffffffffffffffffffffffffffff168152602001600073ffffffffffffffffffffffffffffffffffffffff1681525090565b6040516109ed806105cc83390190565b81548183558181151161055957600202816002028360005260206000209182019101610558919061055e565b5b505050565b6105c891905b808211156105c457600080820160006101000a81549073ffffffffffffffffffffffffffffffffffffffff02191690556001820160006101000a81549073ffffffffffffffffffffffffffffffffffffffff021916905550600201610564565b5090565b9056006060604052341561000f57600080fd5b60405160a0806109ed83398101604052808051906020019091908051906020019091908051906020019091908051906020019091908051906020019091905050610057610315565b600086600281600019169055506000600160146101000a81548160ff0219169083151502179055508560038160001916905550836000806101000a81548173ffffffffffffffffffffffffffffffffffffffff021916908373ffffffffffffffffffffffffffffffffffffffff16021790555082600160006101000a81548173ffffffffffffffffffffffffffffffffffffffff021916908373ffffffffffffffffffffffffffffffffffffffff16021790555033826000019073ffffffffffffffffffffffffffffffffffffffff16908173ffffffffffffffffffffffffffffffffffffffff16815250507f50726f64756374206372656174696f6e0000000000000000000000000000000082602001906000191690816000191681525050848260400181815250504282606001818152505043826080018181525050600480548060010182816101a9919061035e565b9160005260206000209060050201600084909190915060008201518160000160006101000a81548173ffffffffffffffffffffffffffffffffffffffff021916908373ffffffffffffffffffffffffffffffffffffffff160217905550602082015181600101906000191690556040820151816002015560608201518160030155608082015181600401555050506000809054906101000a900473ffffffffffffffffffffffffffffffffffffffff1690508073ffffffffffffffffffffffffffffffffffffffff1663805593db306040518263ffffffff167c0100000000000000000000000000000000000000000000000000000000028152600401808273ffffffffffffffffffffffffffffffffffffffff1673ffffffffffffffffffffffffffffffffffffffff168152602001915050600060405180830381600087803b15156102f557600080fd5b6102c65a03f1151561030657600080fd5b505050505050505050506103f6565b60a060405190810160405280600073ffffffffffffffffffffffffffffffffffffffff168152602001600080191681526020016000815260200160008152602001600081525090565b81548183558181151161038b5760050281600502836000526020600020918201910161038a9190610390565b5b505050565b6103f391905b808211156103ef57600080820160006101000a81549073ffffffffffffffffffffffffffffffffffffffff0219169055600182016000905560028201600090556003820160009055600482016000905550600501610396565b5090565b90565b6105e8806104056000396000f30060606040526004361061008e576000357c0100000000000000000000000000000000000000000000000000000000900463ffffffff16806306fdde031461009e5780631dedc6f7146100cf5780634833689c146100e4578063765f744c146101395780637695b0bf1461016657806383240f831461019657806387b3eaba1461021d578063e88feef91461024e575b341561009957600080fd5b600080fd5b34156100a957600080fd5b6100b16102a3565b60405180826000191660001916815260200191505060405180910390f35b34156100da57600080fd5b6100e26102a9565b005b34156100ef57600080fd5b6100f76102df565b604051808273ffffffffffffffffffffffffffffffffffffffff1673ffffffffffffffffffffffffffffffffffffffff16815260200191505060405180910390f35b341561014457600080fd5b61014c610304565b604051808215151515815260200191505060405180910390f35b341561017157600080fd5b610194600480803560001916906020019091908035906020019091905050610317565b005b34156101a157600080fd5b6101b7600480803590602001909190505061044a565b604051808673ffffffffffffffffffffffffffffffffffffffff1673ffffffffffffffffffffffffffffffffffffffff16815260200185600019166000191681526020018481526020018381526020018281526020019550505050505060405180910390f35b341561022857600080fd5b6102306104af565b60405180826000191660001916815260200191505060405180910390f35b341561025957600080fd5b6102616104b5565b604051808273ffffffffffffffffffffffffffffffffffffffff1673ffffffffffffffffffffffffffffffffffffffff16815260200191505060405180910390f35b60025481565b600160149054906101000a900460ff16156102c357600080fd5b60018060146101000a81548160ff021916908315150217905550565b6000809054906101000a900473ffffffffffffffffffffffffffffffffffffffff1681565b600160149054906101000a900460ff1681565b61031f6104db565b600160149054906101000a900460ff161561033957600080fd5b33816000019073ffffffffffffffffffffffffffffffffffffffff16908173ffffffffffffffffffffffffffffffffffffffff16815250508281602001906000191690816000191681525050818160400181815250504281606001818152505043816080018181525050600480548060010182816103b79190610524565b9160005260206000209060050201600083909190915060008201518160000160006101000a81548173ffffffffffffffffffffffffffffffffffffffff021916908373ffffffffffffffffffffffffffffffffffffffff16021790555060208201518160010190600019169055604082015181600201556060820151816003015560808201518160040155505050505050565b60048181548110151561045957fe5b90600052602060002090600502016000915090508060000160009054906101000a900473ffffffffffffffffffffffffffffffffffffffff16908060010154908060020154908060030154908060040154905085565b60035481565b600160009054906101000a900473ffffffffffffffffffffffffffffffffffffffff1681565b60a060405190810160405280600073ffffffffffffffffffffffffffffffffffffffff168152602001600080191681526020016000815260200160008152602001600081525090565b815481835581811511610551576005028160050283600052602060002091820191016105509190610556565b5b505050565b6105b991905b808211156105b557600080820160006101000a81549073ffffffffffffffffffffffffffffffffffffffff021916905560018201600090556002820160009055600382016000905560048201600090555060050161055c565b5090565b905600a165627a7a723058200e6066f6ce4f3c7cbb99003b1ba03f96f33c7e0ab8be2e001e739d81526b0fe60029a165627a7a72305820873058cce0acdb0e25feb9e60e30b0badc4bf0c25d89f43e576b0bace472b5850029",
  "source": "pragma solidity 0.4.18;\n\nimport \"./Database.sol\";\n/* @title Product Contract\n   @author David Riudor\n   @dev This contract represents a product to be tracked in the Piegādes platform.\n   This product lets the handlers to register actions on it */\n\n/*\n  This smart contract could be improved in several ways:\n   - add timeouts for state reversal (e.g. object is released by one party but not accepted by next)\n   = add escrow payments also for carriers, otherwise they can block forever\n   - add delivery dates for carriers, if not met their escrow balance will be punished\n   - add insurance interface for, e.g. transport delay or damage insurance */\n\ncontract Product {\n\n    /* @dev Reference to its database contract. */\n    address public dataBaseContract;\n    /* @dev Reference to its product factory. */\n    address public productFactoryContract;\n\n  /* @notice Constructor to create a Product\n     @param _name The name of the Product\n     @param _additionalInformation Additional information about the Product,\n            generally as a JSON object.\n     @param _parentProducts Addresses of the parent products of the Product.\n     @param _lon Longitude x10^10 where the Product is created.\n     @param _lat Latitude x10^10 where the Product is created.\n     @param _dataBaseContract Reference to its database contract\n     @param _productFactoryContract Reference to its product factory */\n    function Product(\n        bytes32 _name,\n        bytes32 _additionalInformation,\n        int _geoUri,\n        address _dataBaseContract,\n        address _productFactoryContract) public {\n        name = _name;\n        isDelivered = false;\n        additionalInformation = _additionalInformation;\n\n        dataBaseContract = _dataBaseContract;\n        productFactoryContract = _productFactoryContract;\n\n        Action memory creation;\n        creation.handler = msg.sender;\n        creation.description = \"Product creation\";\n        creation.geoUri = _geoUri;\n        creation.timestamp = now;\n        creation.blockNumber = block.number;\n\n        actions.push(creation);\n\n        Database database = Database(dataBaseContract);\n        database.storeProductReference(this);\n    }\n\n    /* @dev This struct represents an action realized by a handler on the product. */\n    struct Action {\n        // @dev address of the individual or the organization who realizes the action.\n        address handler;\n        // @dev description of the action.\n        bytes32 description;\n        // @dev GeoUri where the Action is done.\n        // https://en.wikipedia.org/wiki/Geo_URI_scheme\n        // https://tools.wmflabs.org/geohack/geohack.php?language=en&pagename=United_Arab_Emirates\n        // &params=25_15_N_55_18_E__globe:export&title=United%20Arab%20Emirates\n        int geoUri;\n        // @dev Instant of time when the Action is done.\n        uint timestamp;\n        // @dev Block when the Action is done.\n        uint blockNumber;\n    }\n\n    // @dev if the Product is Delivered the transaction can't be done.\n    modifier notDelivered {\n        if (isDelivered)\n            revert();\n        _;\n    }\n\n    /* @dev struct for now the deprature, the steps, and the final destination of the product */\n    struct FromStepsTo {\n        // @dev the deprature place of the product\n        bytes32 from;\n        // @dev steps/stops places of the product\n        string[] steps;\n        // @dev the final destination of the product\n        bytes32 to;\n    }\n\n    // @dev indicates if a product has been Delivered or not.\n    bool public isDelivered;\n\n    // @dev indicates the name of a product.\n    bytes32 public name;\n\n    // @dev Additional information about the Product, generally as a JSON object\n    bytes32 public additionalInformation;\n\n    // @dev all the actions which have been applied to the Product.\n    Action[] public actions;\n\n    function () public {\n      // If anyone wants to send Ether to this contract, the transaction gets rejected\n        revert();\n    }\n\n    /* Check attestation signature → address who made the attestation\n    Let us to check if the attester have the correct authorisation for making the actions\n    function verifyIdentityAttester(\n        bytes32 msgHash,\n        uint8 v, bytes32 r, bytes32 s,\n        address attesterAddress) public returns (bool) {\n        // https://github.com/ethereum/go-ethereum/issues/3731\n        bytes memory prefix = \"\\x19Ethereum Signed Message:\\n32\";\n        bytes32 prefixedHash = keccak256(prefix, msgHash);\n        address addr = ecrecover(prefixedHash, v, r, s);\n\n      //return addr;\n        if (addr == attesterAddress) {\n            return true;\n        } else {\n            return false;\n        }\n    }\n\n    /* @notice Function to add an Action to the product.\n       @param _description The description of the Action.\n       @param  geoUri where the Action is done.\n       @param _Delivered True if the product becomes Delivered after the action. */\n    function addAction(\n        //bytes32 type,\n        bytes32 description,\n        int geoUri) public notDelivered {\n        //bool _delivered) public notDelivered {\n\n        Action memory action;\n        action.handler = msg.sender;\n        action.description = description;\n        action.geoUri = geoUri;\n        action.timestamp = now;\n        action.blockNumber = block.number;\n\n        actions.push(action);\n\n    }\n\n      /* @notice Function to consume the Product */\n    function consume() public notDelivered {\n        isDelivered = true;\n    }\n}\n\n/* @title Product Factory Contract\n   @dev This contract represents a product factory which represents products to be tracked in\n   the Piegādes platform. This product lets the handlers to register actions on it. */\n\ncontract ProductFactory {\n\n    /* Index of created Product */\n    /* Index of created Product */\n    struct ProductOwner {\n        address product;\n        address owner;\n    }\n\n    /* Array of product owner; */\n    ProductOwner[] public products;\n\n\n    event NewProductCreated(address productAddress, address ownerAddress, uint createdAt);\n\n\n    /* If anyone wants to send Ether to this contract, the transaction gets rejected*/\n    function () public {\n        revert();\n    }\n\n    function getProductCount() public constant returns(uint productCount) {\n        return products.length;\n    }\n\n    /* @notice Function to create a Product\n       @param _name The name of the Product\n       @param _additionalInformation Additional information about the Product,\n              generally as the IPFS has of a JSON object.\n       @param _geoUri GeoUri where the Product is created.\n       @param _dataBaseContract Reference to its database contract */\n    function createProduct(\n        bytes32 _name,\n        bytes32 _additionalInformation,\n        int _geoUri,\n        address dataBaseContract\n        ) public returns(address) {\n        //return new Product(_name, _additionalInformation, _geoUri, dataBaseContract, this);\n        Product product = new Product(_name, _additionalInformation, _geoUri, dataBaseContract, this);\n        ProductOwner memory newlyCreatedProduct;\n        newlyCreatedProduct.product = product;\n        newlyCreatedProduct.owner = msg.sender;\n        products.push(newlyCreatedProduct);\n        NewProductCreated(product, msg.sender, now);\n        return product;\n    }\n}\n",
  "sourcePath": "/Users/mokhtarbacha/dev/PiegadesContracts/contracts/Product.sol",
  "compiler": {
    "name": "solc",
    "version": "0.4.18+commit.9cf6e910.Emscripten.clang"
  },
  "schemaVersion": "1.0.1",
  "updatedAt": "2017-12-16T20:44:53.343Z"
}